:020000040800F2
:100000000028002091030008610300086303000832
:10001000650300086703000869030008000000008A
:100020000000000000000000000000006B0300085A
:100030006D030008000000006F0300087103000852
:10004000D9030008D9030008D9030008D903000820
:10005000D9030008D9030008D9030008D903000810
:10006000D9030008D9030008D9030008D903000800
:10007000D9030008D9030008D9030008D9030008F0
:10008000D9030008D9030008D9030008D9030008E0
:10009000D9030008D9030008D9030008D9030008D0
:1000A000D9030008D9030008D9030008D9030008C0
:1000B000D9030008D903000800000000D903000894
:1000C000D90300080000000000000000D903000868
:1000D00000000000D9030008D90300080000000058
:1000E000D9030008D9030008D90300080000000064
:1000F0000000000000000000000000000000000000
:0C01000000000000000000005FF808F1A3
:10010C0010B5054C237833B9044B13B10448AFF345
:10011C0000800123237010BD0400002000000000AB
:10012C006405000808B5034B1BB103490348AFF342
:10013C00008008BD000000000800002064050008D5
:10014C00054B82B09A6902439A619B6918400190F1
:10015C00019B02B0704700BF0010024008B51E4B57
:10016C001A6822F007021A601A685007FCD11B4B60
:10017C001A6842F480321A601A689103FCD55A68E6
:10018C0022F47C1242F480325A601A6842F0807277
:10019C001A601A689201FCD55A6822F0F0025A6073
:1001AC005A6822F4E0625A605A6822F460525A602B
:1001BC005A6822F0030242F002025A605A6802F0B6
:1001CC000C02082AFAD1064800F086F9BDE808406E
:1001DC00034800F08FB900BF00200240001002401D
:1001EC000024F4007FB50120FFF7AAFF264B274916
:1001FC00DA69274C42F08052DA61DB69012503F0A1
:10020C0080530093009BCA68224B22F4E0621204D4
:10021C00120C1343204ACB60536823F0E06343F085
:10022C0080635360FFF79AFF1422002101A800F0AD
:10023C008BF92020FFF784FF0420FFF781FF0820B3
:10024C00FFF77EFF032340F206626361082301A9D6
:10025C001248CDE90123059500F0B9F840F20333BB
:10026C000221CDE9013500232046CDE9031301A974
:10027C0000F0ADF80A4A136843F00203136000F073
:10028C0011F800F015F8FCE70010024000ED00E05A
:10029C00000C01400003FA05000001400008014079
:1002AC0010E000E00022014B1A7070472000002083
:1002BC0038B5244C2378032B0DD8DFE803F0020D5E
:1002CC00272D214B9B68990705D40123237000F03F
:1002DC0051F81E4B186038BD00F04CF81B4D2B68C4
:1002EC00C01A40F2DB53984208D902230122237032
:1002FC00174B1A6100F03EF82860ECE7124B9B6834
:10030C00DB4313F00203E6D12370E4E70E4B9B684A
:10031C009A07E0D40323D9E700F02CF80B4D2B6897
:10032C00C01A40F6B733984205D900230122237036
:10033C00074B5A61DEE7044B9B689B07CBD5022326
:10034C00E2E700BF2000002000080140240000204C
:10035C00000C0140FEE7FEE7FEE7FEE7FEE7704714
:10036C0070477047024A136801331360704700BF2F
:10037C0028000020014B1868704700BF280000209F
:10038C0070470000FFF7FCFF0B480C490C4A002398
:10039C0002E0D458C4500433C4188C42F9D3094A2F
:1003AC00094C002301E013600432A242FBD300F09D
:1003BC00A7F8FFF717FF704700000020040000208B
:1003CC0084050008040000202C000020FEE72DE925
:1003DC00F04F0D680446C5F30F2595FAA5F20327D7
:1003EC00B2FA82F24FF0040C4FF0011E40F20118E9
:1003FC0035FA02F001D1BDE8F08F012393402B4276
:10040C0067D0072A88BFA2F10803D1F804A08ABFDD
:10041C000EFA03F308FA02F343F08063BAF1080F03
:10042C000DD1E6684FEA132B9BFAABF9B9FA89F9AF
:10043C00086926EA0B0600FA09F00643E6604FEA63
:10044C00136993FAA3F6B6FA86F693FAA3FB0F2078
:10045C00BBFA8BFBB60000FA06F654F809004FEA1B
:10046C008B0B20EA06060AFA0BFB46EA0B0644F84D
:10047C000960486820F0080001282AD193FAA3F0FB
:10048C00B0FA80F093FAA3FBBBFA8BFB800007FA5F
:10049C0000F026EA000688684FEA8B0B00FA0BFB8B
:1004AC0046EA0B0644F8096093FAA3FABAFA8AFAF8
:1004BC0093FAA3F3B3FA83F34FEA8A0A0CFA0AFA13
:1004CC0026EA0A0ACE689B009E404AEA060644F8D1
:1004DC00096001328CE700004FF47A73B0FBF3F043
:1004EC000022034B013858609A6005221A6070474D
:1004FC0010E000E0014B1860704700BF00000020C6
:10050C0070B500260C4D0D4C641BA410A64209D1ED
:10051C0000F022F800260A4D0A4C641BA410A642D7
:10052C0005D170BD55F8043B98470136EEE755F8F8
:10053C00043B98470136F2E77C0500087C0500086F
:10054C007C0500088005000803460244934200D154
:10055C00704703F8011BF9E7F8B500BFF8BC08BCFD
:10056C009E467047F8B500BFF8BC08BC9E46704765
:04057C003101000841
:040580000D01000861
:040584000024F4005B
:04000005080003915B
:00000001FF
